:100000000C94A2000C94B6000C94B6000C94B600AC
:100010000C94B6000C94B6000C94B6000C94B60088
:100020000C94B6000C94B6000C94B6000C94B60078
:100030000C94B6000C94B6000C94B6000C94B60068
:100040000C94B6000C94B6000C94B6000C94B60058
:100050000C94B6000C94B6000C94B6000C94B60048
:100060000C94B6000C94B6000C94B6000C94B60038
:100070000C94B6000C94B6000C94B6000C94B60028
:100080000C94B6000C94B6000C94B6000C94B60018
:100090000C94B6000C94B6000C94B6000C94B60008
:1000A0000C94B6000C94B6000C94B6000C94B600F8
:1000B0000C94B6000C94B6000C94B6000C94B600E8
:1000C0000C94B6000C94B6000C94B6000C94B600D8
:1000D0000C94B6000C94B6000C94B6000C94B600C8
:1000E0000C94B6000C94B6000C94B6000C94B600B8
:1000F0000C94B6000C94B6000C94B6000C94B600A8
:100100000C94B6000C94B6000C94B6000C94B60097
:100110000C94B6000C94B6000C94B6000C94B60087
:100120000C94B6000C94B6000C94B6000C94B60077
:100130000C94B6000C94B6000C94B6000C94B60067
:100140000C94B60011241FBECFEFCDBFDFE3DEBF9E
:1001500000E00CBF20E2A0E0B0E201C01D92AA388E
:10016000B207E1F70E94B8000C941E030C94000043
:100170000091862010918720D0918820C0918920FD
:100180006090822070908320509084204090852041
:10019000209180203091812069014FEFC41AD40A48
:1001A000220F331F220F331FC9018050904E7C0154
:1001B00020ED3FE049E450E4602F712F8D2F9C2FFC
:1001C0000E945401062F172FD82FC92F26EB33EF8B
:1001D0004DE250E40E94B1024B015C0123E939EA8F
:1001E00042E05EE3662D772D852D942D0E94B102AD
:1001F0009B01AC01C501B4010E945301662E772E0C
:10020000582E492E23EC33E54BEF51E40E94AC020B
:100210001816C4F4802F912FAD2FBC2FF7018083C7
:100220009183A283B383262D372D452D542D602F26
:10023000712F8D2F9C2F0E94C501662E772E582E70
:10024000492E23C0862D972DA52DB42DF70180832F
:100250009183A283B3832481358146815781602FA6
:10026000712F8D2F9C2F0E94C001882374F4202FA2
:10027000312F4D2F5C2F662D772D852D942D0E94CB
:10028000C501062F172FD82FC92FC6010196F4E0FC
:10029000EF0EF11C20E030E040E2C416D10408F07B
:1002A0007BCF6C0185CF5058BB27AA270E946B01DA
:1002B0000C9472020E94640238F00E946B0220F0DB
:1002C00039F49F3F19F426F40C9461020EF4E09582
:1002D000E7FB0C945B02E92F0E94830258F3BA17E4
:1002E000620773078407950720F079F4A6F50C944C
:1002F000A5020EF4E0950B2EBA2FA02D0B01B9012B
:1003000090010C01CA01A0011124FF27591B99F08B
:10031000593F50F4503E68F11A16F040A22F232F97
:10032000342F4427585FF3CF469537952795A795E7
:10033000F0405395C9F77EF41F16BA0B620B730B8E
:10034000840BBAF09150A1F0FF0FBB1F661F771FFF
:10035000881FC2F70EC0BA0F621F731F841F48F4B4
:10036000879577956795B795F7959E3F08F0B0CF3D
:100370009395880F08F09927EE0F97958795089524
:100380000E94370208F481E008950E94D9010C947C
:1003900072020E946B0258F00E94640240F029F43D
:1003A0005F3F29F00C945B0251110C94A6020C944F
:1003B00061020E94830268F39923B1F3552391F3FC
:1003C000951B550BBB27AA2762177307840738F0C4
:1003D0009F5F5F4F220F331F441FAA1FA9F335D021
:1003E0000E2E3AF0E0E832D091505040E695001CD5
:1003F000CAF72BD0FE2F29D0660F771F881FBB1F8F
:10040000261737074807AB07B0E809F0BB0B802D6C
:10041000BF01FF2793585F4F3AF09E3F510578F098
:100420000C945B020C94A6025F3FE4F3983ED4F375
:10043000869577956795B795F7959F5FC9F7880F6C
:10044000911D9695879597F90895E1E0660F771FBE
:10045000881FBB1F621773078407BA0720F0621B4F
:10046000730B840BBA0BEE1F88F7E0950895990F74
:100470000008550FAA0BE0E8FEEF16161706E8076E
:10048000F907C0F012161306E407F50798F0621B8F
:10049000730B840B950B39F40A2661F0232B242B64
:1004A000252B21F408950A2609F4A140A6958FEF83
:1004B000811D811D089597F99F6780E870E060E0D5
:1004C00008959FEF80EC089500240A9416161706ED
:1004D00018060906089500240A9412161306140635
:1004E00005060895092E0394000C11F4882352F098
:1004F000BB0F40F4BF2B11F460FF04C06F5F7F4F50
:100500008F4F9F4F089557FD9058440F551F59F036
:100510005F3F71F04795880F97FB991F61F09F3FF0
:1005200079F087950895121613061406551FF2CF19
:100530004695F1DF08C0161617061806991FF1CF69
:1005400086957105610508940895E894BB27662790
:100550007727CB0197F908950E94370208F48FEFAF
:1005600008950E94C4020C9472020E94640238F042
:100570000E946B0220F0952311F00C945B020C9406
:10058000610211240C94A6020E94830270F3959FCD
:10059000C1F3950F50E0551F629FF001729FBB277A
:1005A000F00DB11D639FAA27F00DB11DAA1F649F16
:1005B0006627B00DA11D661F829F2227B00DA11DC9
:1005C000621F739FB00DA11D621F839FA00D611D4F
:1005D000221F749F3327A00D611D231F849F600D70
:1005E000211D822F762F6A2F11249F5750409AF099
:1005F000F1F088234AF0EE0FFF1FBB1F661F771F25
:10060000881F91505040A9F79E3F510580F00C94EF
:100610005B020C94A6025F3FE4F3983ED4F3869508
:1006200077956795B795F795E7959F5FC1F7FE2B8F
:10063000880F911D9695879597F90895F894FFCFA7
:00000001FF
